{
  "contractName": "Lottery",
  "abi": [
    {
      "inputs": [],
      "stateMutability": "nonpayable",
      "type": "constructor"
    },
    {
      "anonymous": false,
      "inputs": [
        {
          "indexed": false,
          "internalType": "uint256",
          "name": "id",
          "type": "uint256"
        },
        {
          "indexed": false,
          "internalType": "string",
          "name": "winAmount",
          "type": "string"
        }
      ],
      "name": "Result",
      "type": "event"
    },
    {
      "anonymous": false,
      "inputs": [
        {
          "indexed": false,
          "internalType": "address",
          "name": "_admin",
          "type": "address"
        },
        {
          "indexed": false,
          "internalType": "uint256",
          "name": "_money",
          "type": "uint256"
        }
      ],
      "name": "SendMoneyContract",
      "type": "event"
    },
    {
      "anonymous": false,
      "inputs": [
        {
          "indexed": false,
          "internalType": "uint256",
          "name": "startRound",
          "type": "uint256"
        },
        {
          "indexed": false,
          "internalType": "uint256",
          "name": "endRound",
          "type": "uint256"
        }
      ],
      "name": "Timer",
      "type": "event"
    },
    {
      "anonymous": false,
      "inputs": [
        {
          "indexed": false,
          "internalType": "uint256",
          "name": "id",
          "type": "uint256"
        },
        {
          "indexed": false,
          "internalType": "address",
          "name": "player",
          "type": "address"
        },
        {
          "indexed": false,
          "internalType": "string",
          "name": "win",
          "type": "string"
        },
        {
          "indexed": false,
          "internalType": "uint256",
          "name": "prize",
          "type": "uint256"
        }
      ],
      "name": "Win",
      "type": "event"
    },
    {
      "anonymous": false,
      "inputs": [
        {
          "indexed": false,
          "internalType": "uint256",
          "name": "id",
          "type": "uint256"
        },
        {
          "indexed": false,
          "internalType": "uint256[3]",
          "name": "ramdom",
          "type": "uint256[3]"
        },
        {
          "indexed": false,
          "internalType": "string",
          "name": "coefficient",
          "type": "string"
        },
        {
          "indexed": false,
          "internalType": "uint256",
          "name": "total",
          "type": "uint256"
        }
      ],
      "name": "newRound",
      "type": "event"
    },
    {
      "anonymous": false,
      "inputs": [
        {
          "indexed": false,
          "internalType": "uint256",
          "name": "id",
          "type": "uint256"
        },
        {
          "indexed": false,
          "internalType": "uint256[3]",
          "name": "number",
          "type": "uint256[3]"
        },
        {
          "indexed": false,
          "internalType": "uint256",
          "name": "coefficient",
          "type": "uint256"
        },
        {
          "indexed": false,
          "internalType": "uint256",
          "name": "roundID",
          "type": "uint256"
        },
        {
          "indexed": false,
          "internalType": "address",
          "name": "player",
          "type": "address"
        },
        {
          "indexed": false,
          "internalType": "uint256",
          "name": "price",
          "type": "uint256"
        },
        {
          "indexed": false,
          "internalType": "string",
          "name": "typeTicket",
          "type": "string"
        }
      ],
      "name": "newTicket",
      "type": "event"
    },
    {
      "anonymous": false,
      "inputs": [
        {
          "indexed": false,
          "internalType": "address",
          "name": "player",
          "type": "address"
        },
        {
          "indexed": false,
          "internalType": "uint256",
          "name": "tongve",
          "type": "uint256"
        },
        {
          "indexed": false,
          "internalType": "uint256",
          "name": "tongtien",
          "type": "uint256"
        }
      ],
      "name": "totalMoney",
      "type": "event"
    },
    {
      "anonymous": false,
      "inputs": [
        {
          "indexed": false,
          "internalType": "address",
          "name": "_from",
          "type": "address"
        },
        {
          "indexed": false,
          "internalType": "address",
          "name": "_to",
          "type": "address"
        },
        {
          "indexed": false,
          "internalType": "uint256",
          "name": "quantilyFreeTicket",
          "type": "uint256"
        }
      ],
      "name": "transferFree",
      "type": "event"
    },
    {
      "inputs": [],
      "name": "RoundId",
      "outputs": [
        {
          "internalType": "uint256",
          "name": "",
          "type": "uint256"
        }
      ],
      "stateMutability": "view",
      "type": "function",
      "constant": true
    },
    {
      "inputs": [],
      "name": "TicketID",
      "outputs": [
        {
          "internalType": "uint256",
          "name": "",
          "type": "uint256"
        }
      ],
      "stateMutability": "view",
      "type": "function",
      "constant": true
    },
    {
      "inputs": [],
      "name": "TotalJP1",
      "outputs": [
        {
          "internalType": "uint256",
          "name": "",
          "type": "uint256"
        }
      ],
      "stateMutability": "view",
      "type": "function",
      "constant": true
    },
    {
      "inputs": [],
      "name": "TotalJP2",
      "outputs": [
        {
          "internalType": "uint256",
          "name": "",
          "type": "uint256"
        }
      ],
      "stateMutability": "view",
      "type": "function",
      "constant": true
    },
    {
      "inputs": [],
      "name": "TotalTicket",
      "outputs": [
        {
          "internalType": "uint256",
          "name": "",
          "type": "uint256"
        }
      ],
      "stateMutability": "view",
      "type": "function",
      "constant": true
    },
    {
      "inputs": [],
      "name": "endTime",
      "outputs": [
        {
          "internalType": "uint256",
          "name": "",
          "type": "uint256"
        }
      ],
      "stateMutability": "view",
      "type": "function",
      "constant": true
    },
    {
      "inputs": [],
      "name": "gameID",
      "outputs": [
        {
          "internalType": "uint256",
          "name": "",
          "type": "uint256"
        }
      ],
      "stateMutability": "view",
      "type": "function",
      "constant": true
    },
    {
      "inputs": [
        {
          "internalType": "uint256",
          "name": "",
          "type": "uint256"
        }
      ],
      "name": "games",
      "outputs": [
        {
          "internalType": "uint256",
          "name": "id",
          "type": "uint256"
        },
        {
          "internalType": "uint256",
          "name": "amout",
          "type": "uint256"
        },
        {
          "internalType": "address",
          "name": "player",
          "type": "address"
        },
        {
          "internalType": "uint256",
          "name": "sochon",
          "type": "uint256"
        },
        {
          "internalType": "uint256",
          "name": "ramdom",
          "type": "uint256"
        },
        {
          "internalType": "string",
          "name": "kq",
          "type": "string"
        }
      ],
      "stateMutability": "view",
      "type": "function",
      "constant": true
    },
    {
      "inputs": [],
      "name": "owner",
      "outputs": [
        {
          "internalType": "address",
          "name": "",
          "type": "address"
        }
      ],
      "stateMutability": "view",
      "type": "function",
      "constant": true
    },
    {
      "inputs": [
        {
          "internalType": "uint256",
          "name": "",
          "type": "uint256"
        }
      ],
      "name": "rounds",
      "outputs": [
        {
          "internalType": "uint256",
          "name": "id",
          "type": "uint256"
        },
        {
          "internalType": "uint256",
          "name": "coefficient",
          "type": "uint256"
        },
        {
          "internalType": "uint256",
          "name": "total",
          "type": "uint256"
        },
        {
          "internalType": "uint256",
          "name": "totalJP1",
          "type": "uint256"
        },
        {
          "internalType": "uint256",
          "name": "consolation",
          "type": "uint256"
        },
        {
          "internalType": "uint256",
          "name": "Jackpots1",
          "type": "uint256"
        },
        {
          "internalType": "uint256",
          "name": "Jackpots2",
          "type": "uint256"
        },
        {
          "internalType": "uint256",
          "name": "profitAdmin",
          "type": "uint256"
        },
        {
          "internalType": "uint256",
          "name": "totalTicket",
          "type": "uint256"
        }
      ],
      "stateMutability": "view",
      "type": "function",
      "constant": true
    },
    {
      "inputs": [
        {
          "internalType": "uint256",
          "name": "",
          "type": "uint256"
        }
      ],
      "name": "tickets",
      "outputs": [
        {
          "internalType": "uint256",
          "name": "id",
          "type": "uint256"
        },
        {
          "internalType": "uint256",
          "name": "coefficient",
          "type": "uint256"
        },
        {
          "internalType": "uint256",
          "name": "roundID",
          "type": "uint256"
        },
        {
          "internalType": "address",
          "name": "player",
          "type": "address"
        },
        {
          "internalType": "uint256",
          "name": "price",
          "type": "uint256"
        },
        {
          "internalType": "string",
          "name": "win",
          "type": "string"
        },
        {
          "internalType": "uint256",
          "name": "prize",
          "type": "uint256"
        },
        {
          "internalType": "string",
          "name": "typeTicket",
          "type": "string"
        }
      ],
      "stateMutability": "view",
      "type": "function",
      "constant": true
    },
    {
      "inputs": [
        {
          "internalType": "address",
          "name": "",
          "type": "address"
        }
      ],
      "name": "ves",
      "outputs": [
        {
          "internalType": "uint256",
          "name": "ve",
          "type": "uint256"
        }
      ],
      "stateMutability": "view",
      "type": "function",
      "constant": true
    },
    {
      "inputs": [
        {
          "internalType": "bytes",
          "name": "",
          "type": "bytes"
        }
      ],
      "name": "checkUpkeep",
      "outputs": [
        {
          "internalType": "bool",
          "name": "upkeepNeeded",
          "type": "bool"
        },
        {
          "internalType": "bytes",
          "name": "",
          "type": "bytes"
        }
      ],
      "stateMutability": "nonpayable",
      "type": "function"
    },
    {
      "inputs": [
        {
          "internalType": "bytes",
          "name": "",
          "type": "bytes"
        }
      ],
      "name": "performUpkeep",
      "outputs": [],
      "stateMutability": "nonpayable",
      "type": "function"
    },
    {
      "inputs": [
        {
          "internalType": "uint256[3]",
          "name": "numbers",
          "type": "uint256[3]"
        }
      ],
      "name": "buyTicket",
      "outputs": [],
      "stateMutability": "payable",
      "type": "function",
      "payable": true
    },
    {
      "inputs": [
        {
          "internalType": "uint256",
          "name": "quantity",
          "type": "uint256"
        }
      ],
      "name": "buyMutilTickets",
      "outputs": [],
      "stateMutability": "payable",
      "type": "function",
      "payable": true
    },
    {
      "inputs": [],
      "name": "_dial",
      "outputs": [],
      "stateMutability": "nonpayable",
      "type": "function"
    },
    {
      "inputs": [],
      "name": "getRound",
      "outputs": [
        {
          "components": [
            {
              "internalType": "uint256",
              "name": "id",
              "type": "uint256"
            },
            {
              "internalType": "uint256[3]",
              "name": "number",
              "type": "uint256[3]"
            },
            {
              "internalType": "uint256",
              "name": "coefficient",
              "type": "uint256"
            },
            {
              "internalType": "uint256",
              "name": "total",
              "type": "uint256"
            },
            {
              "internalType": "uint256",
              "name": "totalJP1",
              "type": "uint256"
            },
            {
              "internalType": "uint256",
              "name": "consolation",
              "type": "uint256"
            },
            {
              "internalType": "uint256",
              "name": "Jackpots1",
              "type": "uint256"
            },
            {
              "internalType": "uint256",
              "name": "Jackpots2",
              "type": "uint256"
            },
            {
              "internalType": "uint256",
              "name": "profitAdmin",
              "type": "uint256"
            },
            {
              "internalType": "uint256",
              "name": "totalTicket",
              "type": "uint256"
            }
          ],
          "internalType": "struct Lottery.Round[]",
          "name": "",
          "type": "tuple[]"
        }
      ],
      "stateMutability": "view",
      "type": "function",
      "constant": true
    },
    {
      "inputs": [],
      "name": "getTicket",
      "outputs": [
        {
          "components": [
            {
              "internalType": "uint256",
              "name": "id",
              "type": "uint256"
            },
            {
              "internalType": "uint256[3]",
              "name": "number",
              "type": "uint256[3]"
            },
            {
              "internalType": "uint256",
              "name": "coefficient",
              "type": "uint256"
            },
            {
              "internalType": "uint256",
              "name": "roundID",
              "type": "uint256"
            },
            {
              "internalType": "address",
              "name": "player",
              "type": "address"
            },
            {
              "internalType": "uint256",
              "name": "price",
              "type": "uint256"
            },
            {
              "internalType": "string",
              "name": "win",
              "type": "string"
            },
            {
              "internalType": "uint256",
              "name": "prize",
              "type": "uint256"
            },
            {
              "internalType": "string",
              "name": "typeTicket",
              "type": "string"
            }
          ],
          "internalType": "struct Lottery.Ticket[]",
          "name": "",
          "type": "tuple[]"
        }
      ],
      "stateMutability": "view",
      "type": "function",
      "constant": true
    },
    {
      "inputs": [
        {
          "internalType": "uint256",
          "name": "_index",
          "type": "uint256"
        }
      ],
      "name": "removeArray",
      "outputs": [],
      "stateMutability": "nonpayable",
      "type": "function"
    },
    {
      "inputs": [
        {
          "internalType": "uint256",
          "name": "_index",
          "type": "uint256"
        }
      ],
      "name": "getRamdomArray",
      "outputs": [
        {
          "internalType": "uint256",
          "name": "",
          "type": "uint256"
        }
      ],
      "stateMutability": "view",
      "type": "function",
      "constant": true
    },
    {
      "inputs": [
        {
          "internalType": "uint256",
          "name": "_index",
          "type": "uint256"
        }
      ],
      "name": "getRamdomCoefficient",
      "outputs": [
        {
          "internalType": "uint256",
          "name": "",
          "type": "uint256"
        }
      ],
      "stateMutability": "view",
      "type": "function",
      "constant": true
    },
    {
      "inputs": [],
      "name": "getBalance",
      "outputs": [
        {
          "internalType": "uint256",
          "name": "",
          "type": "uint256"
        }
      ],
      "stateMutability": "view",
      "type": "function",
      "constant": true
    },
    {
      "inputs": [
        {
          "internalType": "uint256",
          "name": "chon",
          "type": "uint256"
        }
      ],
      "name": "GameMini1",
      "outputs": [],
      "stateMutability": "payable",
      "type": "function",
      "payable": true
    },
    {
      "inputs": [
        {
          "internalType": "uint256",
          "name": "_index",
          "type": "uint256"
        }
      ],
      "name": "getRamdom",
      "outputs": [
        {
          "internalType": "uint256",
          "name": "",
          "type": "uint256"
        }
      ],
      "stateMutability": "view",
      "type": "function",
      "constant": true
    },
    {
      "inputs": [
        {
          "internalType": "uint256[3]",
          "name": "numbers",
          "type": "uint256[3]"
        }
      ],
      "name": "buyTicketGame",
      "outputs": [],
      "stateMutability": "nonpayable",
      "type": "function"
    },
    {
      "inputs": [
        {
          "internalType": "address",
          "name": "_from",
          "type": "address"
        },
        {
          "internalType": "address",
          "name": "_to",
          "type": "address"
        },
        {
          "internalType": "uint256",
          "name": "quantilyFreeTicket",
          "type": "uint256"
        }
      ],
      "name": "transferFreeTicket",
      "outputs": [],
      "stateMutability": "nonpayable",
      "type": "function"
    },
    {
      "inputs": [],
      "name": "SendMoneyAddressSM",
      "outputs": [],
      "stateMutability": "payable",
      "type": "function",
      "payable": true
    }
  ],
  "bytecode": "0x60b460039081556000600481815560058290556006829055600782905560089190915561010060405260016080908152600260a05260c09290925260e08190526200004d91600991620001c5565b50604080516101408101825260008152600160208201526002918101919091526003606082015260046080820152600560a0820152600660c0820152600760e082015260086101008201526009610120820152620000af90600a9081620001c5565b506000600d55348015620000c257600080fd5b50600080546001600160a01b03191633179055620000df620000e5565b62000280565b6002544211620001455760405162461bcd60e51b815260206004820152602160248201527f54686f69206769616e206368756120686574206b6f20746865206261742064616044820152607560f81b606482015260840160405180910390fd5b600254421115620001c3576004805490600062000162836200024c565b90915550504260018190556003546200017b9162000231565b60028190556001546040517f128fb73f2ab78d09be13785bd8bba77b0416aff50ef1188f9b674b3eda32866492620001ba928252602082015260400190565b60405180910390a15b565b82805482825590600052602060002090810192821562000208579160200282015b8281111562000208578251829060ff16905591602001919060010190620001e6565b50620002169291506200021a565b5090565b5b808211156200021657600081556001016200021b565b600082198211156200024757620002476200026a565b500190565b60006000198214156200026357620002636200026a565b5060010190565b634e487b7160e01b600052601160045260246000fd5b61368a80620002906000396000f3fe6080604052600436106101b75760003560e01c80638c887bda116100ec578063c20d79731161008a578063c7de5b4311610064578063c7de5b43146104f5578063dd9904f114610515578063dee7a60714610528578063f869a0641461053057600080fd5b8063c20d79731461049f578063c4c4e425146104bf578063c7dd4b4f146104df57600080fd5b80639f8743f7116100c65780639f8743f714610430578063b5a1b0d514610452578063b5bf489f14610468578063c002c4d61461047d57600080fd5b80638c887bda146103d25780638da5cb5b146103e557806397bcd0641461041d57600080fd5b8063509a13dd116101595780636e04ff0d116101335780636e04ff0d1461030257806376212f46146103385780638bd8a74e1461034e5780638c65c81f1461036e57600080fd5b8063509a13dd146102a257806350b44712146102b8578063661ef75d146102ec57600080fd5b806312065fe01161019557806312065fe0146102375780633197cbb61461024a5780633becdae9146102605780634585e33b1461028257600080fd5b806309df655c146101bc57806310fde37f146101ef578063117a5b9014610205575b600080fd5b3480156101c857600080fd5b506101dc6101d7366004613045565b61055d565b6040519081526020015b60405180910390f35b3480156101fb57600080fd5b506101dc60085481565b34801561021157600080fd5b50610225610220366004613045565b6105ab565b6040516101e696959493929190613452565b34801561024357600080fd5b50476101dc565b34801561025657600080fd5b506101dc60025481565b34801561026c57600080fd5b5061028061027b366004612f11565b610676565b005b34801561028e57600080fd5b5061028061029d366004612fd3565b61075b565b3480156102ae57600080fd5b506101dc60045481565b3480156102c457600080fd5b506102d86102d3366004613045565b610767565b6040516101e6989796959493929190613497565b3480156102f857600080fd5b506101dc60055481565b34801561030e57600080fd5b5061032a61031d366004612fd3565b5050600254421190606090565b6040516101e6929190613375565b34801561034457600080fd5b506101dc60075481565b34801561035a57600080fd5b50610280610369366004612f4d565b6108d9565b34801561037a57600080fd5b5061038e610389366004613045565b610bea565b60408051998a5260208a0198909852968801959095526060870193909352608086019190915260a085015260c084015260e0830152610100820152610120016101e6565b6102806103e0366004613045565b610c48565b3480156103f157600080fd5b50600054610405906001600160a01b031681565b6040516001600160a01b0390911681526020016101e6565b61028061042b366004612f4d565b610d14565b34801561043c57600080fd5b50610445611006565b6040516101e691906131bd565b34801561045e57600080fd5b506101dc60065481565b34801561047457600080fd5b50610280611201565b34801561048957600080fd5b50610492611568565b6040516101e6919061327c565b3480156104ab57600080fd5b506101dc6104ba366004613045565b61186e565b3480156104cb57600080fd5b506101dc6104da366004613045565b61187d565b3480156104eb57600080fd5b506101dc600d5481565b34801561050157600080fd5b50610280610510366004613045565b61188f565b610280610523366004613045565b611971565b610280611cf7565b34801561053c57600080fd5b506101dc61054b366004612ef6565b600f6020526000908152604090205481565b600a54600090819061056f84426134fa565b60405160200161058191815260200190565b6040516020818303038152906040528051906020012060001c6105a491906135b2565b9392505050565b600e60205260009081526040902080546001820154600283015460038401546004850154600586018054959694956001600160a01b039094169492939192916105f39061355c565b80601f016020809104026020016040519081016040528092919081815260200182805461061f9061355c565b801561066c5780601f106106415761010080835404028352916020019161066c565b820191906000526020600020905b81548152906001019060200180831161064f57829003601f168201915b5050505050905086565b6001600160a01b0383166000908152600f6020526040902080548211156106d35760405162461bcd60e51b815260206004820152600c60248201526b42616e206b6f20647520766560a01b60448201526064015b60405180910390fd5b80546106e0908390613545565b81556001600160a01b0383166000908152600f6020526040902080546107079084906134fa565b8155604080516001600160a01b038088168252861660208201529081018490527f178415ea6e4367568b778662dec0a1d03955b6b493daafb50efff486f72953879060600160405180910390a15050505050565b610763611201565b5050565b600c818154811061077757600080fd5b60009182526020909120600b9091020180546004820154600583015460068401546007850154600886018054959750939592946001600160a01b03909216939092916107c29061355c565b80601f01602080910402602001604051908101604052809291908181526020018280546107ee9061355c565b801561083b5780601f106108105761010080835404028352916020019161083b565b820191906000526020600020905b81548152906001019060200180831161081e57829003601f168201915b50505050509080600901549080600a0180546108569061355c565b80601f01602080910402602001604051908101604052809291908181526020018280546108829061355c565b80156108cf5780601f106108a4576101008083540402835291602001916108cf565b820191906000526020600020905b8154815290600101906020018083116108b257829003601f168201915b5050505050905088565b336000908152600f60205260409020805461092c5760405162461bcd60e51b815260206004820152601360248201527242616e206b6f206475207665206465206d756160681b60448201526064016106ca565b8151600910156109685760405162461bcd60e51b8152602060048201526007602482015266010181016901c960cd1b60448201526064016106ca565b815160208301511480159061098557506040820151602083015114155b801561099657506040820151825114155b6109d95760405162461bcd60e51b8152602060048201526014602482015273204e686170203320736f206b686163206e68617560601b60448201526064016106ca565b60018160000160008282546109ee9190613545565b909155505060078054906000610a0383613597565b919050555060006009610a1760075461187d565b81548110610a2757610a27613608565b600091825260208083209091015460408051610120810182526007548152808401888152818301849052600480546060840152336080840152662386f26fc1000060a084015283518085018552818152636e6f6e6560e01b8188015260c084015260e0830187905283518085019094528352636672656560e01b94830194909452610100810191909152600c805460018101825594528051600b9094027fdf6966c971051c3d54ec59162606531493a51404a002842f56009d7e5cf4a8c7810194855592519194509283929091610b22917fdf6966c971051c3d54ec59162606531493a51404a002842f56009d7e5cf4a8c801906003612d02565b50604082015160048201556060820151600582015560808201516006820180546001600160a01b0319166001600160a01b0390921691909117905560a0820151600782015560c08201518051610b82916008840191602090910190612d40565b5060e082015160098201556101008201518051610ba991600a840191602090910190612d40565b505050662386f26fc1000060056000828254610bc591906134fa565b92505081905550600160086000828254610bdf91906134fa565b909155505050505050565b600b8181548110610bfa57600080fd5b90600052602060002090600c020160009150905080600001549080600401549080600501549080600601549080600701549080600801549080600901549080600a01549080600b0154905089565b600d54610c569060016134fa565b600d819055600090610c679061186e565b6040805160c081018252600d5480825234602080840191825233848601908152606085018981526080860188815287518085018952600080825260a08901918252968752600e855297909520865181559351600185015590516002840180546001600160a01b0319166001600160a01b0390921691909117905551600383015591516004820155925180519495509193610d079260058501920190612d40565b5090505061076333611d32565b805160091015610d505760405162461bcd60e51b8152602060048201526007602482015266010181016901c960cd1b60448201526064016106ca565b8051602082015114801590610d6d57506040810151602082015114155b8015610d7e57506040810151815114155b610dc15760405162461bcd60e51b8152602060048201526014602482015273204e686170203320736f206b686163206e68617560601b60448201526064016106ca565b60078054906000610dd183613597565b919050555060006009610de560075461187d565b81548110610df557610df5613608565b600091825260208083209091015460408051610120810182526007548152808401878152818301849052600480546060840152336080840152662386f26fc1000060a084015283518085018552908152636e6f6e6560e01b8187015260c083015260e08201869052825180840190935260058352646d6f6e657960d81b94830194909452610100810191909152600c805460018101825594528051600b9094027fdf6966c971051c3d54ec59162606531493a51404a002842f56009d7e5cf4a8c7810194855592519194509283929091610ef3917fdf6966c971051c3d54ec59162606531493a51404a002842f56009d7e5cf4a8c801906003612d02565b50604082015160048201556060820151600582015560808201516006820180546001600160a01b0319166001600160a01b0390921691909117905560a0820151600782015560c08201518051610f53916008840191602090910190612d40565b5060e082015160098201556101008201518051610f7a91600a840191602090910190612d40565b5050507fca1b433d763af58de509a92cff0cbf3ef8a720fe080fe7a2eb7f1519ece7eaff600754848460045433662386f26fc10000604051610fc1969594939291906133d3565b60405180910390a1662386f26fc1000060056000828254610fe291906134fa565b92505081905550600160086000828254610ffc91906134fa565b9091555050505050565b606080600b805480602002602001604051908101604052809291908181526020016000905b828210156110ed5760008481526020908190206040805161014081018252600c86029092018054835281516060810190925291928301906001830160038282826020028201915b8154815260200190600101908083116110725750505050508152602001600482015481526020016005820154815260200160068201548152602001600782015481526020016008820154815260200160098201548152602001600a8201548152602001600b820154815250508152602001906001019061102b565b5050505090506110fb612db3565b60005b82518110156111f95760006111148260016134fa565b90505b83518110156111e65783818151811061113257611132613608565b60200260200101516000015184838151811061115057611150613608565b60200260200101516000015110156111d45783828151811061117457611174613608565b6020026020010151925083818151811061119057611190613608565b60200260200101518483815181106111aa576111aa613608565b6020026020010181905250828482815181106111c8576111c8613608565b60200260200101819052505b806111de81613597565b915050611117565b50806111f181613597565b9150506110fe565b509092915050565b6000600a60055460026112149190613526565b61121e9190613512565b600080546040519293506001600160a01b03169183156108fc0291849190818181858888f19350505050158015611259573d6000803e3d6000fd5b50806005546112689190613545565b60055560005b600b5481101561130057600454600b828154811061128e5761128e613608565b90600052602060002090600c02016000015414156112ee5760405162461bcd60e51b815260206004820152601a60248201527f4368692071756120736f2031206c616e206d6f6920726f756e6400000000000060448201526064016106ca565b806112f881613597565b91505061126e565b50611309612e0c565b600061131660045461055d565b9050600a818154811061132b5761132b613608565b60009182526020909120015482526113428161188f565b600061134f60045461055d565b9050600a818154811061136457611364613608565b600091825260209182902001549084015261137e8161188f565b600061138b60045461055d565b9050600a81815481106113a0576113a0613608565b60009182526020808320909101546040808801919091528051610140810182529283526001918301919091526002908201526003606082015260046080820152600560a0820152600660c0820152600760e08201526008610100820152600961012082015261141290600a9081612e2a565b506000600961142260045461187d565b8154811061143257611432613608565b600091825260208083209091015460408051610140810182526004548152928301898152908301829052606083018490526080830184905260a0830184905260c0830184905260e0830184905261010083018a9052600854610120840152600b805460018101825594528251600c9094027f0175b7a638427703f0dbe7bb9bbf987a2551717b34e79f33b5b1008d1fa01db981019485559051919450919283929091611502917f0175b7a638427703f0dbe7bb9bbf987a2551717b34e79f33b5b1008d1fa01dba01906003612d02565b5060408201518160040155606082015181600501556080820151816006015560a0820151816007015560c0820151816008015560e0820151816009015561010082015181600a015561012082015181600b0155505061155f611f33565b50505050505050565b606080600c805480602002602001604051908101604052809291908181526020016000905b828210156117625760008481526020908190206040805161012081018252600b86029092018054835281516060810190925291928301906001830160038282826020028201915b8154815260200190600101908083116115d4575050509183525050600482015460208201526005820154604082015260068201546001600160a01b031660608201526007820154608082015260088201805460a0909201916116359061355c565b80601f01602080910402602001604051908101604052809291908181526020018280546116619061355c565b80156116ae5780601f10611683576101008083540402835291602001916116ae565b820191906000526020600020905b81548152906001019060200180831161169157829003601f168201915b5050505050815260200160098201548152602001600a820180546116d19061355c565b80601f01602080910402602001604051908101604052809291908181526020018280546116fd9061355c565b801561174a5780601f1061171f5761010080835404028352916020019161174a565b820191906000526020600020905b81548152906001019060200180831161172d57829003601f168201915b5050505050815250508152602001906001019061158d565b505050509050611770612e6a565b60005b82518110156111f95760006117898260016134fa565b90505b835181101561185b578381815181106117a7576117a7613608565b6020026020010151600001518483815181106117c5576117c5613608565b6020026020010151600001511015611849578382815181106117e9576117e9613608565b6020026020010151925083818151811061180557611805613608565b602002602001015184838151811061181f5761181f613608565b60200260200101819052508284828151811061183d5761183d613608565b60200260200101819052505b8061185381613597565b91505061178c565b508061186681613597565b915050611773565b600080600361056f84426134fa565b600954600090819061056f84426134fa565b600a5481106118d55760405162461bcd60e51b81526020600482015260126024820152711a5b99195e081bdd5d081bd988189bdd5b9960721b60448201526064016106ca565b805b600a546118e690600190613545565b81101561194657600a6118fa8260016134fa565b8154811061190a5761190a613608565b9060005260206000200154600a828154811061192857611928613608565b6000918252602090912001558061193e81613597565b9150506118d7565b50600a805480611958576119586135f2565b6001900381819060005260206000200160009055905550565b611979612e0c565b60015b828111611c5657600061198e8261055d565b9050600a81815481106119a3576119a3613608565b60009182526020909120015483526119ba8161188f565b60006119c58361055d565b9050600a81815481106119da576119da613608565b60009182526020918290200154908501526119f48161188f565b60006119ff8461055d565b9050600a8181548110611a1457611a14613608565b600091825260208220015460408701526007805491611a3283613597565b919050555060006009611a4660075461187d565b81548110611a5657611a56613608565b6000918252602080832090910154604080516101208101825260075481528084018b8152818301849052600480546060840152336080840152662386f26fc1000060a084015283518085018552908152636e6f6e6560e01b8187015260c083015260e08201869052825180840190935260058352646d6f6e657960d81b94830194909452610100810191909152600c805460018101825594528051600b9094027fdf6966c971051c3d54ec59162606531493a51404a002842f56009d7e5cf4a8c7810194855592519194509283929091611b54917fdf6966c971051c3d54ec59162606531493a51404a002842f56009d7e5cf4a8c801906003612d02565b50604082015160048201556060820151600582015560808201516006820180546001600160a01b0319166001600160a01b0390921691909117905560a0820151600782015560c08201518051611bb4916008840191602090910190612d40565b5060e082015160098201556101008201518051611bdb91600a840191602090910190612d40565b5050604080516101408101825260008152600160208201526002918101919091526003606082015260046080820152600560a0820152600660c0820152600760e082015260086101008201526009610120820152611c3d9150600a9081612e2a565b5050505050508080611c4e90613597565b91505061197c565b507f7c4e931c98ac836cf82e52e669d969fb94ad9f46c075234ac81e1556ab1151cc3383611c8b662386f26fc1000082613526565b604080516001600160a01b03909416845260208401929092529082015260600160405180910390a1611cc4662386f26fc1000083613526565b60056000828254611cd591906134fa565b925050819055508160086000828254611cee91906134fa565b90915550505050565b604080513381523460208201527fd59e27da593d812acf75aa25940b395fbbc0f18e723af022c758460baeb6a27791015b60405180910390a1565b6001600160a01b0381166000908152600f60209081526040808320600d548452600e909252909120600481015460038201541415611dde57604080518082019091526004808252634452415760e01b6020909201918252611d97916005840191612d40565b50600281015460018201546040516001600160a01b039092169181156108fc0291906000818181858888f19350505050158015611dd8573d6000803e3d6000fd5b50611ef0565b6003810154158015611df4575080600401546001145b80611e12575080600301546001148015611e12575080600401546002145b80611e2e575080600301546002148015611e2e57506004810154155b15611ec157604080518082019091526003808252622ba4a760e91b6020909201918252611e5f916005840191612d40565b50600281015460018201546040516001600160a01b039092169181156108fc0291906000818181858888f19350505050158015611ea0573d6000803e3d6000fd5b506001826000016000828254611eb691906134fa565b90915550611ef09050565b604080518082019091526004808252634c4f534560e01b6020909201918252611eee916005840191612d40565b505b7f0b0757697195159b9153065c6009e143c818510c8596fb3f2c42f6c4a5e9366c600d5482600501604051611f26929190613439565b60405180910390a1505050565b6000600b6001600454611f469190613545565b81548110611f5657611f56613608565b60009182526020918290206040805161014081018252600c9093029091018054835281516060810190925291928301906001830160038282826020028201915b815481526020019060010190808311611f9657505050918352505060048201546020820152600582015460408201526006820154606082015260078201546080820152600882015460a0820152600982015460c0820152600a82015460e0820152600b918201546101009091015290915060008080805b600c54811015612519576000600c828154811061202c5761202c613608565b90600052602060002090600b020160050154876000015114156125065760005b60038110156121035760005b600c848154811061206b5761206b613608565b5060005260038110156120f0578860200151826003811061208e5761208e613608565b6020020151600c85815481106120a6576120a6613608565b90600052602060002090600b020160010182600381106120c8576120c8613608565b015414156120de576120db6001846134fa565b92505b806120e881613597565b915050612058565b50806120fb81613597565b91505061204c565b50806002141561217b576040518060400160405280600b81526020016a21b7b739b7b630ba34b7b760a91b815250600c838154811061214457612144613608565b90600052602060002090600b02016008019080519060200190612168929190612d40565b506121746001866134fa565b945061230f565b80600314156122b9578560016004546121949190613545565b815481106121a4576121a4613608565b90600052602060002090600c020160040154600c83815481106121c9576121c9613608565b90600052602060002090600b020160040154141561224d57604051806040016040528060098152602001684a61636b706f74733160b81b815250600c838154811061221657612216613608565b90600052602060002090600b0201600801908051906020019061223a929190612d40565b506122466001846134fa565b925061230f565b604051806040016040528060098152602001682530b1b5b837ba399960b91b815250600c838154811061228257612282613608565b90600052602060002090600b020160080190805190602001906122a6929190612d40565b506122b26001856134fa565b935061230f565b604051806040016040528060048152602001636c6f736560e01b815250600c83815481106122e9576122e9613608565b90600052602060002090600b0201600801908051906020019061230d929190612d40565b505b6040516a21b7b739b7b630ba34b7b760a91b6020820152602b0160405160208183030381529060405280519060200120600c838154811061235257612352613608565b90600052602060002090600b0201600801604051602001612373919061314b565b60405160208183030381529060405280519060200120141561250657600c82815481106123a2576123a2613608565b6000918252602082206006600b9092020101546040516001600160a01b03909116919066470de4df8200009082818181858883f193505050501580156123ec573d6000803e3d6000fd5b5066470de4df820000600c838154811061240857612408613608565b90600052602060002090600b02016009018190555066470de4df8200006005546124329190613545565b600581905550600080516020613635833981519152600c838154811061245a5761245a613608565b90600052602060002090600b020160000154600c848154811061247f5761247f613608565b90600052602060002090600b020160060160009054906101000a90046001600160a01b0316600c85815481106124b7576124b7613608565b90600052602060002090600b0201600801600c86815481106124db576124db613608565b90600052602060002090600b0201600901546040516124fd9493929190613398565b60405180910390a15b508061251181613597565b91505061200d565b508284600160045461252b9190613545565b8154811061253b5761253b613608565b90600052602060002090600c020160070181905550808460016004546125619190613545565b8154811061257157612571613608565b90600052602060002090600c020160080181905550818460016004546125979190613545565b815481106125a7576125a7613608565b90600052602060002090600c0201600901819055506005548460016004546125cf9190613545565b815481106125df576125df613608565b600091825260209091206005600c9092020101558161261e576126036001836134fa565b915060055460065461261591906134fa565b60065560006005555b6006548460016004546126319190613545565b8154811061264157612641613608565b600091825260209091206006600c90920201015580612668576126656001826134fa565b90505b6000826005546126789190613512565b905060008260065461268a9190613512565b905060005b600c54811015612c2d57600c81815481106126ac576126ac613608565b90600052602060002090600b02016005015488600001511415612c1b57604051682530b1b5b837ba399960b91b602082015260290160405160208183030381529060405280519060200120600c828154811061270a5761270a613608565b90600052602060002090600b020160080160405160200161272b919061314b565b6040516020818303038152906040528051906020012014156128ae5782600c828154811061275b5761275b613608565b90600052602060002090600b020160090181905550600c818154811061278357612783613608565b6000918252602082206006600b9092020101546040516001600160a01b039091169185156108fc02918691818181858888f193505050501580156127cb573d6000803e3d6000fd5b50826005546127da9190613545565b600581905550600080516020613635833981519152600c828154811061280257612802613608565b90600052602060002090600b020160000154600c838154811061282757612827613608565b90600052602060002090600b020160060160009054906101000a90046001600160a01b0316600c848154811061285f5761285f613608565b90600052602060002090600b0201600801600c858154811061288357612883613608565b90600052602060002090600b0201600901546040516128a59493929190613398565b60405180910390a15b604051684a61636b706f74733160b81b602082015260290160405160208183030381529060405280519060200120600c82815481106128ef576128ef613608565b90600052602060002090600b0201600801604051602001612910919061314b565b604051602081830303815290604052805190602001201415612c1b57670de0b6b3a76400006006541115612aa95781600c828154811061295257612952613608565b90600052602060002090600b020160090181905550600c818154811061297a5761297a613608565b6000918252602082206006600b9092020101546040516001600160a01b039091169184156108fc02918591818181858888f193505050501580156129c2573d6000803e3d6000fd5b50816006546129d19190613545565b600681905550600080516020613635833981519152600c82815481106129f9576129f9613608565b90600052602060002090600b020160000154600c8381548110612a1e57612a1e613608565b90600052602060002090600b020160060160009054906101000a90046001600160a01b0316600c8481548110612a5657612a56613608565b90600052602060002090600b0201600801600c8581548110612a7a57612a7a613608565b90600052602060002090600b020160090154604051612a9c9493929190613398565b60405180910390a1612c1b565b670de0b6b3a7640000600c8281548110612ac557612ac5613608565b90600052602060002090600b020160090181905550600c8181548110612aed57612aed613608565b6000918252602082206006600b9092020101546040516001600160a01b039091169190670de0b6b3a76400009082818181858883f19350505050158015612b38573d6000803e3d6000fd5b5081600654612b479190613545565b600681905550600080516020613635833981519152600c8281548110612b6f57612b6f613608565b90600052602060002090600b020160000154600c8381548110612b9457612b94613608565b90600052602060002090600b020160060160009054906101000a90046001600160a01b0316600c8481548110612bcc57612bcc613608565b90600052602060002090600b0201600801600c8581548110612bf057612bf0613608565b90600052602060002090600b020160090154604051612c129493929190613398565b60405180910390a15b80612c2581613597565b91505061268f565b50600060085561155f6002544211612c915760405162461bcd60e51b815260206004820152602160248201527f54686f69206769616e206368756120686574206b6f20746865206261742064616044820152607560f81b60648201526084016106ca565b600254421115612d005760048054906000612cab83613597565b9091555050426001819055600354612cc2916134fa565b60028190556001546040517f128fb73f2ab78d09be13785bd8bba77b0416aff50ef1188f9b674b3eda32866492611d28928252602082015260400190565b565b8260038101928215612d30579160200282015b82811115612d30578251825591602001919060010190612d15565b50612d3c929150612ec5565b5090565b828054612d4c9061355c565b90600052602060002090601f016020900481019282612d6e5760008555612d30565b82601f10612d8757805160ff1916838001178555612d30565b82800160010185558215612d305791820182811115612d30578251825591602001919060010190612d15565b60405180610140016040528060008152602001612dce612e0c565b815260200160008152602001600081526020016000815260200160008152602001600081526020016000815260200160008152602001600081525090565b60405180606001604052806003906020820280368337509192915050565b828054828255906000526020600020908101928215612d30579160200282015b82811115612d30578251829060ff16905591602001919060010190612e4a565b60405180610120016040528060008152602001612e85612e0c565b8152602001600081526020016000815260200160006001600160a01b03168152602001600081526020016060815260200160008152602001606081525090565b5b80821115612d3c5760008155600101612ec6565b80356001600160a01b0381168114612ef157600080fd5b919050565b600060208284031215612f0857600080fd5b6105a482612eda565b600080600060608486031215612f2657600080fd5b612f2f84612eda565b9250612f3d60208501612eda565b9150604084013590509250925092565b600060608284031215612f5f57600080fd5b82601f830112612f6e57600080fd5b6040516060810181811067ffffffffffffffff82111715612f9157612f9161361e565b604052808360608101861015612fa657600080fd5b60005b6003811015612fc8578135835260209283019290910190600101612fa9565b509195945050505050565b60008060208385031215612fe657600080fd5b823567ffffffffffffffff80821115612ffe57600080fd5b818501915085601f83011261301257600080fd5b81358181111561302157600080fd5b86602082850101111561303357600080fd5b60209290920196919550909350505050565b60006020828403121561305757600080fd5b5035919050565b8060005b6003811015613081578151845260209384019390910190600101613062565b50505050565b6000815180845260005b818110156130ad57602081850181015186830182015201613091565b818111156130bf576000602083870101525b50601f01601f19169290920160200192915050565b600081546130e18161355c565b8085526020600183811680156130fe576001811461311257613140565b60ff19851688840152604088019550613140565b866000528260002060005b858110156131385781548a820186015290830190840161311d565b890184019650505b505050505092915050565b60008083546131598161355c565b600182811680156131715760018114613182576131b1565b60ff198416875282870194506131b1565b8760005260208060002060005b858110156131a85781548a82015290840190820161318f565b50505082870194505b50929695505050505050565b602080825282518282018190526000919060409081850190868401855b8281101561326f57815180518552868101516131f88887018261305e565b5080860151608086810191909152606082015160a0808801919091529082015160c0808801919091529082015160e0808801919091529082015161010080880191909152908201516101208088019190915290820151610140870152015161016085015261018090930192908501906001016131da565b5091979650505050505050565b60006020808301818452808551808352604092508286019150828160051b87010184880160005b8381101561336757603f19898403018552815161016081518552888201516132cd8a87018261305e565b5087820151608081818801526060840151915060a0828189015281850151925060c09150613305828901846001600160a01b03169052565b84015160e088810191909152908401516101008089018590529092509061332e84890184613087565b9085015161012089015293015186840361014088015292915061335390508183613087565b9689019694505050908601906001016132a3565b509098975050505050505050565b82151581526040602082015260006133906040830184613087565b949350505050565b8481526001600160a01b03841660208201526080604082018190526000906133c2908301856130d4565b905082606083015295945050505050565b60006101208883526133e8602084018961305e565b60808301969096525060a08101939093526001600160a01b039190911660c083015260e08201526101008101829052600591810191909152646d6f6e657960d81b6101408201526101600192915050565b82815260406020820152600061339060408301846130d4565b86815285602082015260018060a01b038516604082015283606082015282608082015260c060a0820152600061348b60c0830184613087565b98975050505050505050565b60006101008a835289602084015288604084015260018060a01b03881660608401528660808401528060a08401526134d181840187613087565b90508460c084015282810360e08401526134eb8185613087565b9b9a5050505050505050505050565b6000821982111561350d5761350d6135c6565b500190565b600082613521576135216135dc565b500490565b6000816000190483118215151615613540576135406135c6565b500290565b600082821015613557576135576135c6565b500390565b600181811c9082168061357057607f821691505b6020821081141561359157634e487b7160e01b600052602260045260246000fd5b50919050565b60006000198214156135ab576135ab6135c6565b5060010190565b6000826135c1576135c16135dc565b500690565b634e487b7160e01b600052601160045260246000fd5b634e487b7160e01b600052601260045260246000fd5b634e487b7160e01b600052603160045260246000fd5b634e487b7160e01b600052603260045260246000fd5b634e487b7160e01b600052604160045260246000fdfe20081341ca607b96803dda85baf0f0a153599a687b25ae6e458327c250cc2ce7a2646970667358221220f0ff9e0fa7032893183b232955c2e33b5274be17a8e740ddee194349c412b51d64736f6c63430008070033",
  "immutableReferences": {},
  "source": "// SPDX-License-Identifier: MIT\npragma solidity ^0.8.7;\n\n// KeeperCompatible.sol imports the functions from both ./KeeperBase.sol and\n// ./interfaces/KeeperCompatibleInterface.sol\n// import \"@chainlink/contracts/src/v0.8/KeeperCompatible.sol\";\nimport \"./KeeperCompatible.sol\";\n\ncontract Lottery is KeeperCompatibleInterface {\n\n    address public owner;\n    uint private startTime;\n    uint public endTime;\n    uint private duration = 3 minutes ;\n    uint constant TicketPrice = 0.01 ether ;\n    uint public RoundId = 0;\n    uint public TotalJP2 = 0 ;\n    uint public TotalJP1 = 0 ;\n    uint public TicketID = 0;\n    uint public TotalTicket = 0 ;\n    \n    uint [] private hesoTk = [1,2,3,4];\n    uint [] private numberArray = [0,1,2,3,4,5,6,7,8,9];\n    \n    struct Round {\n        uint id;\n        uint [3] number ;\n        uint coefficient ;\n        uint total;\n        uint totalJP1;\n        uint consolation;\n        uint Jackpots1 ;\n        uint Jackpots2 ;\n        uint profitAdmin;\n        uint totalTicket;\n        }\n    \n    struct Ticket{\n        uint id ;\n        uint [3] number ;\n        uint coefficient ;\n        uint roundID ;\n        address player ;\n        uint price ;\n        string win ;\n        uint prize ;\n        string typeTicket ;\n    }\n    \n    Round [] public rounds;\n    Ticket [] public tickets ;\n    \n\n    event Timer(uint startRound , uint endRound);\n    event newTicket(uint id ,uint [3] number,uint coefficient ,uint roundID , address player, uint price , string typeTicket) ;\n    event newRound(uint id,uint [3] ramdom ,string coefficient , uint total);\n    event totalMoney(address player,uint tongve,uint tongtien);\n    event Win(uint id,address player,string win , uint prize) ;\n\n    constructor() {\n        owner = msg.sender;\n        _startNewRound();\n    }\n\n    function checkUpkeep(bytes calldata /* checkData */) external override returns (bool upkeepNeeded, bytes memory /* performData */) {\n        upkeepNeeded = block.timestamp > endTime ;\n        // We don't use the checkData in this example. The checkData is defined when the Upkeep was registered.\n    }\n\n    function performUpkeep(bytes calldata /* performData */) external override {\n        _dial();\n        // We don't use the performData in this example. The performData is generated by the Keeper's call to your checkUpkeep function\n    }\n\n    // Xc nh ch to nn smart contract .\n    modifier onlyOwner {\n        require(\n            msg.sender == owner,\"Only owner can call this function.\"\n        );\n        _;\n    }\n        // Hm bt u 1 vng s x\n    function _startNewRound() private {\n        require(block.timestamp > endTime,\"Thoi gian chua het ko the bat dau\");\n        if (block.timestamp >  endTime) {\n            RoundId++;\n            startTime =  block.timestamp ;\n            endTime = startTime + duration ;\n        emit Timer(startTime, endTime);\n        }\n    }\n    \n        // Hm mua 1 v s : nhp 1 mng 3 ch s khc nhau 0 - 10 .\n    function buyTicket(uint[3] memory numbers) public payable{\n        \n      \n        require (numbers.length == 3 , \"can nhap du 3 so\");\n        require ( numbers[0] >= 0 && numbers[0] <=9 ,  ' 0 - 9 ' ) ;\n        require ( numbers[1] != numbers[0] && numbers[1] != numbers[2] && numbers[0] != numbers[2],  ' Nhap 3 so khac nhau');\n        \n        TicketID ++ ;\n\n        uint  heso =0;\n        \n        heso = hesoTk[getRamdomCoefficient(TicketID)];\n        \n        \n        Ticket memory ticket = Ticket(TicketID, numbers,heso, RoundId,msg.sender,TicketPrice,'none',0,'money');\n        \n        tickets.push(ticket);\n    \n        emit newTicket(TicketID,numbers,heso ,RoundId,msg.sender,TicketPrice,\"money\") ;\n        \n        TotalJP2 += TicketPrice ;\n        TotalTicket += 1;\n        \n    }\n    \n    // Hm mua s lng v s : nhp s lng v s cn mua .\n    function buyMutilTickets(uint quantity) public payable {\n    \n             \n         uint[3] memory numbers ;\n        \n         for(uint n  = 1 ; n <= quantity ; n++){\n             \n            uint indexN1 = getRamdomArray(n);\n                   \n            numbers[0] = numberArray[indexN1];\n                \n            removeArray(indexN1) ;\n    \n            uint indexN2= getRamdomArray(n);\n             \n            numbers[1] = numberArray[indexN2] ;\n            \n            removeArray(indexN2) ;\n                \n            uint indexN3= getRamdomArray(n);\n                 \n            numbers[2] = numberArray[indexN3] ;\n            \n            TicketID ++ ;\n\n            uint  heso =0;\n        \n            heso = hesoTk[getRamdomCoefficient(TicketID)];\n        \n            Ticket memory ticket = Ticket(TicketID,numbers,heso ,RoundId,msg.sender,TicketPrice,'none',0,\"money\");\n            \n            tickets.push(ticket);\n            \n            numberArray = [0,1,2,3,4,5,6,7,8,9];\n            \n            \n        }\n        \n        emit totalMoney(msg.sender,quantity,quantity*TicketPrice);\n        TotalJP2 += quantity * TicketPrice ;\n        TotalTicket += quantity;\n    }\n    \n    \n    // Hm quay s : quay ra kt qua ca 1 round .\n    function _dial() public  {\n        \n        uint hoahongadmin = TotalJP2 * 2 / 10 ;\n        \n        payable(owner).transfer(hoahongadmin) ;\n            \n        TotalJP2 = TotalJP2 - hoahongadmin ;\n        \n         for(uint i = 0 ; i < rounds.length; i++){\n            require(rounds[i].id != RoundId , \"Chi qua so 1 lan moi round\");\n         }\n        \n        uint [3] memory numbers ;\n           \n    \n        uint indexN1 = getRamdomArray(RoundId);\n               \n        numbers[0] = numberArray[indexN1];\n            \n        removeArray(indexN1) ;\n\n        uint indexN2= getRamdomArray(RoundId);\n         \n        numbers[1] = numberArray[indexN2] ;\n        \n        removeArray(indexN2) ;\n            \n        uint indexN3= getRamdomArray(RoundId);\n             \n        numbers[2] = numberArray[indexN3] ;\n            \n        numberArray = [0,1,2,3,4,5,6,7,8,9];\n\n        uint  heso =0;\n        \n        heso = hesoTk[getRamdomCoefficient(RoundId)];\n            \n        Round memory round  = Round(RoundId,numbers,heso,0,0,0,0,0,hoahongadmin,TotalTicket) ;\n         \n        rounds.push(round);\n         \n        _pickWinner();\n  \n    }\n    \n    // Hm kim tra ngi trng thng v gi tin vo address ngi trng .\n    function _pickWinner() private{\n            \n        Round memory winner = rounds[RoundId-1];\n\n        Round [] storage roundcount = rounds;\n        \n        uint constConsolation = 0 ;\n        uint countJackpots2 = 0 ;\n        uint countJackpots1 = 0 ;\n        \n        for(uint n = 0 ; n < tickets.length; n++){\n         uint count =0;\n            if(winner.id == tickets[n].roundID){\n                for(uint i =0 ; i < winner.number.length ;i++){\n                    for(uint j = 0 ; j < tickets[n].number.length; j++){\n                        if(tickets[n].number[j] == winner.number[i])\n                            count +=1 ;\n                    }\n                }\n                \n            if(count == 2 ){\n              tickets[n].win = 'Consolation' ;\n              constConsolation +=1;\n            }\n\n            else if(count == 3){\n                if(tickets[n].coefficient == roundcount[RoundId-1].coefficient){\n                tickets[n].win = 'Jackpots1';\n                countJackpots1 +=1 ;\n                }\n                else{\n                 tickets[n].win = 'Jackpots2'; \n                 countJackpots2 += 1 ;\n                }\n             }\n\n \n            else{\n                 tickets[n].win = 'lose' ;\n            }\n\n\n            if(keccak256(abi.encodePacked(tickets[n].win)) == keccak256(abi.encodePacked(\"Consolation\"))){\n\n              payable(tickets[n].player).transfer( 0.02 ether) ;\n              tickets[n].prize = 0.02 ether ;\n            \n              TotalJP2 = TotalJP2 - 0.02 ether ;\n              \n              emit  Win(tickets[n].id ,tickets[n].player, tickets[n].win ,tickets[n].prize);\n            }\n        }\n            \n\n    }   \n\n       roundcount[RoundId-1].consolation = constConsolation;\n       roundcount[RoundId-1].Jackpots1 = countJackpots1;\n       roundcount[RoundId-1].Jackpots2 = countJackpots2;\n       roundcount[RoundId-1].total = TotalJP2;\n\n            if(countJackpots2 == 0){\n                countJackpots2 +=1; // fix err chia cho 0\n                TotalJP1 = TotalJP1 + TotalJP2  ;\n                TotalJP2 = 0 ;\n            }\n\n            roundcount[RoundId-1].totalJP1 = TotalJP1;\n\n            if(countJackpots1 == 0){\n                countJackpots1 +=1; // fix err chia cho 0\n            }\n\n            uint jackpot2 = TotalJP2 / countJackpots2  ;\n            uint jackpot1 = TotalJP1 / countJackpots1  ;\n\n\n\n        for(uint m = 0 ; m < tickets.length; m++){\n\n            if(winner.id == tickets[m].roundID){\n        \n                if(keccak256(abi.encodePacked(tickets[m].win)) == keccak256(abi.encodePacked(\"Jackpots2\"))){\n                    tickets[m].prize = jackpot2 ;\n                    payable(tickets[m].player).transfer(jackpot2);\n                    TotalJP2 = TotalJP2 - jackpot2 ;\n                    emit  Win(tickets[m].id ,tickets[m].player, tickets[m].win ,tickets[m].prize);\n                        \n                }\n                if(keccak256(abi.encodePacked(tickets[m].win)) == keccak256(abi.encodePacked(\"Jackpots1\"))){\n\n                    if(TotalJP1 > 1 ether){\n                        tickets[m].prize = jackpot1 ;\n                        payable(tickets[m].player).transfer(jackpot1);\n                        TotalJP1 = TotalJP1 - jackpot1 ;\n                        emit  Win(tickets[m].id ,tickets[m].player, tickets[m].win ,tickets[m].prize);\n                    }\n                    \n                    else {\n                        tickets[m].prize = 1 ether ;\n                        payable(tickets[m].player).transfer(1 ether);\n                        TotalJP1 = TotalJP1 - jackpot1 ;\n                        emit  Win(tickets[m].id ,tickets[m].player, tickets[m].win ,tickets[m].prize);\n                    }\n                        \n                }\n            }\n        }\n\n\n\n        TotalTicket = 0 ;\n        \n        _startNewRound();\n}\n    \n    \n    // Xem dy s ca V theo ID .\n    // function getNumberTicketByID (uint id) public view returns (uint[3] memory) {\n        \n    //     for(uint i = 0 ; i < tickets.length;i++){\n    //         if(id == tickets[i].id){\n    //             return tickets[i].number;\n    //         }\n    //     }\n        \n    // }\n    \n     // Xem dy s ca Round theo ID .\n    // function getNumberRoundByID (uint id) public view returns (uint[3] memory) {\n        \n    //     for(uint i = 0 ; i < rounds.length;i++){\n    //         if(id == rounds[i].id){\n    //             return rounds[i].number;\n    //         }\n    //     }\n        \n    // }\n    \n    // Ly mng Round t ID cao n ID thp\n    function getRound() public view returns(Round [] memory){\n        Round [] memory arrayR  ;\n        arrayR = rounds;\n        Round  memory temp ;\n        \n        for(uint i = 0 ; i < arrayR.length ; i++){\n           for (uint j = i + 1; j < arrayR.length; j++) {\n                if (arrayR[i].id < arrayR[j].id) {\n                    \n                    temp = arrayR[i];\n                    arrayR[i] =  arrayR[j];\n                     arrayR[j] = temp;\n                }\n             }\n        \n        }\n        \n        return arrayR ;\n    }\n    \n    // Ly mng Ticket t ID cao n ID thp\n    function getTicket() public view returns(Ticket [] memory) {\n        Ticket [] memory arrayTk  ;\n        arrayTk = tickets;\n        Ticket  memory temp ;\n        \n        for(uint i = 0 ; i < arrayTk.length ; i++){\n           for (uint j = i + 1; j < arrayTk.length; j++) {\n                if (arrayTk[i].id < arrayTk[j].id) {\n                    \n                     temp = arrayTk[i];\n                     arrayTk[i] =  arrayTk[j];\n                     arrayTk[j] = temp;\n                }\n             }\n        \n        }\n        \n        return arrayTk ;\n    }\n    \n    \n    // Hm xa 1 phn t trong mng numberArray\n    function removeArray(uint _index) public {\n        require(_index < numberArray.length, \"index out of bound\");\n\n        for (uint i = _index; i < numberArray.length - 1; i++) {\n            numberArray[i] = numberArray[i + 1];\n        }\n        numberArray.pop();\n    }\n    \n    // Hm ramdom mng numberArray\n    function getRamdomArray(uint _index) public view returns(uint256){\n        \n       uint256 ramdom =  uint256(keccak256(abi.encodePacked(block.timestamp + _index))) % numberArray.length;\n            \n       return ramdom ;\n               \n    }\n\n    function getRamdomCoefficient(uint _index) public view returns(uint256){\n        \n       uint256 ramdom =  uint256(keccak256(abi.encodePacked(block.timestamp + _index))) % hesoTk.length;\n            \n       return ramdom ;\n               \n    }\n    \n    \n    \n    // Xem s d ca smart contract\n    function getBalance() public view returns (uint256) {\n        return address(this).balance;\n    }\n    \n    \n //=======================================================================================//\n\n    // Phn 2 Mini Game    \n    uint public gameID= 0 ;\n     struct Game {\n        uint id ;\n        uint amout ;\n        address player ;\n        uint sochon ;\n        uint ramdom ;\n        string kq;\n    }\n\n    struct Ve {\n        uint ve  ;\n    }\n\n    event Result(uint256 id, string winAmount);\n    event transferFree(address _from , address _to , uint quantilyFreeTicket);\n    event SendMoneyContract(address _admin , uint _money);\n\n    mapping (uint => Game) public games ;\n    mapping (address => Ve) public  ves ;\n\n    // Hm game ba ,ko , bao => ngi chi chn \n    function GameMini1 (uint chon ) public payable {\n        gameID = gameID +1 ;\n\n        uint ramdom = getRamdom(gameID);\n\n        games[gameID] = Game(gameID, msg.value, msg.sender , chon , ramdom , \"\");\n\n        kq (msg.sender);\n    }\n    // 0 : bua , 1 : keo , 2 : bao\n    function kq (address player) private{\n\n       Ve storage tk = ves[player];\n\n       Game storage game = games[gameID];\n\n       if(game.sochon == game.ramdom){\n            game.kq = \"DRAW\" ; \n            payable(game.player).transfer(game.amout);\n       }\n\n       else  if(game.sochon == 0  && game.ramdom == 1 || game.sochon == 1 && game.ramdom == 2 || game.sochon == 2  && game.ramdom == 0 ){\n           game.kq = \"WIN\" ;\n           payable(game.player).transfer(game.amout);\n           tk.ve += 1 ;\n       }\n\n       else {\n           game.kq = \"LOSE\" ;\n       }\n\n       emit Result( gameID, game.kq);\n    }\n\n    // Hm ramdom GameMini\n    function getRamdom(uint _index) public view returns(uint256){\n        \n       uint256 ramdom =  uint256(keccak256(abi.encodePacked(block.timestamp + _index))) % 3;\n            \n       return ramdom ;\n               \n    }\n\n    // Hm mua 1 v s : nhp 1 mng 3 ch s khc nhau 0 - 9 bng phiu gameMini .\n    function buyTicketGame(uint[3] memory numbers) public {\n        \n        Ve storage tk = ves[msg.sender];\n\n        require(tk.ve > 0 , \"Ban ko du ve de mua\");\n      \n        require (numbers.length == 3 , \"can nhap du 3 so\");\n        require ( numbers[0] >= 0 && numbers[0] <=9 ,  ' 0 - 9 ' ) ;\n        require ( numbers[1] != numbers[0] && numbers[1] != numbers[2] && numbers[0] != numbers[2],  ' Nhap 3 so khac nhau');\n\n\n        tk.ve -=1 ;\n        \n        TicketID ++ ;\n\n        uint  heso =0;\n        \n        heso = hesoTk[getRamdomCoefficient(TicketID)];\n        \n        Ticket memory ticket = Ticket(TicketID, numbers,heso, RoundId,msg.sender,TicketPrice,'none',0,\"free\");\n        \n        tickets.push(ticket);\n\n\n        TotalJP2 += TicketPrice ;\n        TotalTicket += 1;\n        \n    }\n\n    function transferFreeTicket(address _from , address _to , uint quantilyFreeTicket) public {\n\n        Ve storage tkFrom = ves[_from];\n\n        require(tkFrom.ve >= quantilyFreeTicket , \"Ban ko du ve\");\n        tkFrom.ve = tkFrom.ve - quantilyFreeTicket ;\n\n        Ve storage tkTo = ves[_to];\n\n        tkTo.ve = tkTo.ve + quantilyFreeTicket ;\n\n        emit transferFree( _from ,  _to ,  quantilyFreeTicket);\n\n    }\n\n\n    function SendMoneyAddressSM () public payable {\n        emit SendMoneyContract(msg.sender , msg.value);\n    }\n\n  \n}\n",
  "sourcePath": "E:\\Bao_ve_do_an\\12_12\\lotterry-master\\contracts\\Lottery.sol",
  "compiler": {
    "name": "solc",
    "version": "0.8.7+commit.e28d00a7.Emscripten.clang"
  },
  "schemaVersion": "3.4.3",
  "updatedAt": "2021-12-18T10:52:07.467Z",
  "networkType": "ethereum",
  "devdoc": {
    "kind": "dev",
    "methods": {},
    "version": 1
  },
  "userdoc": {
    "kind": "user",
    "methods": {},
    "version": 1
  }
}